:020000040800F2
:10000000A8070020990100084B220008DB1F000808
:100010004922000815030008E52700080000000039
:100020000000000000000000000000006F22000837
:10003000FB030008000000006D2200087122000888
:10004000B3010008B3010008B3010008B3010008C0
:10005000B3010008B3010008B3010008B3010008B0
:10006000B3010008B3010008B3010008B3010008A0
:1000700019030008B301000849030008B301000890
:10008000B3010008B3010008B3010008B301000880
:10009000B3010008B3010008B3010008B301000870
:1000A0002D230008B3010008B3010008B3010008C4
:1000B000B3010008B3010008B3010008B301000850
:1000C000B3010008B3010008B3010008B301000840
:1000D000B3010008B3010008B3010008B301000830
:1000E000B3010008B3010008B3010008B301000820
:1000F000B3010008B3010008B3010008B301000810
:10010000B3010008B3010008B3010008B3010008FF
:10011000B3010008B301000849230008B301000837
:1001200055030008B3010008B3010008B30100083B
:10013000B3010008B3010008B3010008B3010008CF
:10014000B3010008B3010008B3010008B3010008BF
:10015000B3010008B3010008B3010008B3010008AF
:10016000B3010008B3010008B3010008B30100089F
:10017000B3010008B3010008B3010008000000004B
:10018000B3010008DFF80CD000F018F80048004771
:1001900005280008A80700200648804706480047B1
:1001A000FEE7FEE7FEE7FEE7FEE7FEE7FEE7FEE727
:1001B000FEE7FEE7E522000885010008064C074D32
:1001C00006E0E06840F0010394E807009847103427
:1001D000AC42F6D3FFF7DAFF1429000834290008EF
:1001E0004A4910B5D1F8042322F44032C1F804235F
:1001F000D1F8042343681A43C1F8042301684A680C
:1002000022F480724A6001684A68036942EA032264
:100210004A6001684A6822F040724A6001684A6890
:1002200083681A434A6001688A6822F400628A601F
:1002300001688A68C3681A438A60816A6FF07062D5
:10024000D14201688A6822F070628A6001688A6817
:100250000CD0836A1A438A6001688A6822F040528F
:100260008A6001688A68C36A1A4301E022F040523A
:100270008A6001688A6822F002028A6001688A68DE
:10028000836942EA43028A60016A002901684A6878
:1002900015D042F400624A6001684A6822F4604264
:1002A0004A6001684B684FF46044426A94FAA4F4CF
:1002B000B4FA84F4521EA24013434B6002E022F4CD
:1002C00000624A600168CA6A22F47002CA62016868
:1002D000CA6A838B0E4C04EB03531A43CA6201684B
:1002E0008A6822F400728A6001688A68036B42EAB5
:1002F00043228A6001688A6822F480628A60016809
:100300008A68406942EA8020886010BD0020014070
:100310000000F0FFFEE700000848006800680121C7
:1003200000F400220648012A01D9017001E00022F0
:10033000027004480170014800F044BE040200202D
:100340000000002001000020014800F03BBE00003A
:1003500064020020014800F035BE00000C030020BC
:1003600001681823CAB2103AB2FBF3F2054B6FF3DF
:100370000901032A9B5CC36500D9091D81650846F4
:1003800070470000CC28000810B5014600208B699A
:100390008A6A4FF0C07453B1B3F5005F15D072B1E3
:1003A000012A0CD0022A0AD0032A09D104E01AB18A
:1003B000012A06D0022A03D1C96AC90100D5012049
:1003C00010BDC96AA142FAD010BD002AF7D0012A97
:1003D000F2D0022AF3D0032AF3D010BD10B504687E
:1003E00063608368402B036803D099600068C26033
:1003F00010BD9A600068C16010BD7047FEE7000044
:1004000078B50024009490F83C20012A19D00122EC
:1004100080F83C200A6807230568092A13D9EE688A
:100420000A3A02EB420293409E43EE600B788A68E0
:100430000A3B03EB43039A400368DD682A43DA6012
:1004400010E0022078BD2E6902EB420293409E43E9
:100450002E610A788B6802EB4202934002681569AC
:100460002B4313614A681F23072A13D205686E6B5A
:10047000521E02EB820293409E436E630B790A8800
:100480005B1E92B203EB83039A4003685D6B2A43C1
:100490005A6327E005680D2A12D22E6BD21F02EB99
:1004A000820293409E432E630B790A88DB1F92B22F
:1004B00003EB83039A4003681D6B2A431A6311E020
:1004C000EE6A0D3A02EB820293409E43EE620B7994
:1004D0000A880D3B92B203EB83039A400368DD6AFE
:1004E0002A43DA62174A0368934208D10B68122B39
:1004F00005D1D2F8043343F48003C2F8043303680F
:1005000093421AD10B68102B01D0112B15D1D2F8C0
:10051000043343F40003C2F80433096810290CD1F2
:1005200009490A4A0968B1FBF2F101EB810149006E
:1005300000E0491E00910029FBD180F83C400020DA
:1005400078BD0000002001401800002040420F004C
:1005500070B504004FF0000503D0206C002610B1E8
:1005600007E0012070BD666484F83C60204600F01E
:1005700019F8206CC00610D4206C20F4885040F08C
:10058000020020642046FFF72BFE6664206C20F0FA
:10059000020040F00100206400E0012584F83C6086
:1005A000284670BD70B5064600681B4986B0884273
:1005B00030D11A480025016841F48071016000685B
:1005C000032400F4807005903F208DE831006946D7
:1005D000134800F033FE30208DE8310069461148A1
:1005E00000F02CFE114C1048C4E900050015A56070
:1005F000C4E90350400060618000A0614011C4E97B
:1006000007052046656200F0B1FD08B1FFF7F6FE70
:10061000B463A66306B070BD0020014044380240B8
:100620000008024000000240106402400C03002059
:100630002DE9F84F044600200A9D0090A0684FF471
:10064000807A802817D0E06BB8B1606CA8B1E06CFC
:1006500098B194F83400012813D0012084F83400B4
:1006600094F835600020012E0DD084F8340002206B
:100670000090BDE8F88F504600E040206065012002
:10068000F7E70220F5E7022684F835606065206808
:10069000066846F480260660206803612B462046E3
:1006A000FFF79CFEDFF800844FF4006B4FF4001E50
:1006B000FE48FD4AFD4BFC4DFC4EFB4FDFF8ECC302
:1006C000DFF8E4932168483A603318351836303F34
:1006D0000CF1780C09F13009414534D9814205D03B
:1006E000914203D0994201D0A94201D1202125E0B5
:1006F000B14205D0B94203D0614501D0494501D18D
:1007000059461BE0DFF8A48308F13008414511D0B9
:10071000DFF89483A8F1180841450BD0DFF88C83EB
:1007200008F19008414505D0DFF87C8308F14808BE
:10073000414501D1714601E04FF00061DFF8688367
:10074000A8F14C0839E0DFF8648308F1A8084145B6
:1007500036D9814205D0914203D0994201D0A942B5
:1007600001D1202125E0B14205D0B94203D0614535
:1007700001D0494501D159461BE0DFF8308308F12B
:100780003008414511D0DFF82083A8F11808414511
:100790000BD0DFF8188308F19008414505D0DFF849
:1007A000088308F14808414501D1714601E04FF046
:1007B0000061DFF8F482A8F15008C8F8001072E078
:1007C000DFF8E88208F14808414536D9814205D072
:1007D000914203D0994201D0A94201D1202125E0C4
:1007E000B14205D0B94203D0614501D0494501D19C
:1007F00059461BE0DFF8B48208F13008414511D0BA
:10080000DFF8A482A8F1180841450BD0DFF89C82DC
:1008100008F19008414505D0DFF88C8208F14808BE
:10082000414501D1714601E04FF00061DFF87C8263
:10083000A8F11008C8F80C1035E0814205D09142AB
:1008400003D0994201D0A94201D1202125E0B14233
:1008500005D0B94203D0614501D0494501D159467F
:100860001BE0DFF8488208F13008414511D0DFF87D
:100870003882A8F1180841450BD0DFF8308208F122
:100880009008414505D0DFF8208208F1480841452D
:1008900001D1714601E04FF00061DFF81082A8F14C
:1008A0001008C8F80810DFF8008221684FF4806B48
:1008B0004FF4801E414534D9814205D0914203D086
:1008C000994201D0A94201D1102125E0B14205D0C1
:1008D000B94203D0614501D0494501D159461BE0D9
:1008E000DFF8C88108F13008414511D0DFF8B88140
:1008F000A8F1180841450BD0DFF8B08108F1900845
:10090000414505D0DFF8A08108F14808414501D1F3
:10091000714601E04FF08061DFF88C81A8F14C084E
:1009200039E0DFF8888108F1A808414536D98142CD
:1009300005D0914203D0994201D0A94201D11021A2
:1009400025E0B14205D0B94203D0614501D0494507
:1009500001D159461BE0DFF8548108F130084145C8
:1009600011D0DFF84481A8F1180841450BD0DFF819
:100970003C8108F19008414505D0DFF82C8108F151
:100980004808414501D1714601E04FF08061DFF830
:100990001881A8F15008C8F8001072E0DFF80C8147
:1009A00008F14808414536D9814205D0914203D02B
:1009B000994201D0A94201D1102125E0B14205D0D0
:1009C000B94203D0614501D0494501D159461BE0E8
:1009D000DFF8D88008F13008414511D0DFF8C88031
:1009E000A8F1180841450BD0DFF8C08008F1900845
:1009F000414505D0DFF8B08008F14808414501D1F4
:100A0000714601E04FF08061DFF8A080A8F1100886
:100A1000C8F80C1035E0814205D0914203D09942CC
:100A200001D0A94201D1102125E0B14205D0B9423F
:100A300003D0614501D0494501D159461BE0DFF89B
:100A40006C8008F13008414511D0DFF85C80A8F1D6
:100A5000180841450BD0DFF8548008F19008414553
:100A600005D0DFF8448008F14808414501D17146BE
:100A700001E04FF08061DFF83480A8F11008C8F879
:100A80000810DFF8248021684FF4007B4FF4002E1B
:100A9000414534D9814205D0914203D0994201D0D9
:100AA000A94205D1082125E05864024010600240A7
:100AB000B14205D0B94203D0614501D0494501D1C9
:100AC000594617E0DFF8F08441450FD0DFF8EC8499
:100AD00041450BD0DFF8E08408F16008414505D0BE
:100AE000DFF8D88408F16008414501D1714601E082
:100AF0004FF00071DFF8C484A8F1340835E0DFF866
:100B0000B88408F17808414532D9814205D0914234
:100B100003D0994201D0A94201D1082121E0B1427C
:100B200005D0B94203D0614501D0494501D15946AC
:100B300017E0DFF8848441450FD0DFF88084414519
:100B40000BD0DFF8748408F16008414505D0DFF868
:100B50006C8408F16008414501D1714601E04FF015
:100B60000071DFF85884A8F13808C8F800106AE06E
:100B7000DFF8448408F11808414532D9814205D094
:100B8000914203D0994201D0A94201D1082121E02C
:100B9000B14205D0B94203D0614501D0494501D1E8
:100BA000594617E0DFF8108441450FD0DFF80C8478
:100BB00041450BD0DFF8008408F16008414505D0BD
:100BC000DFF8F88308F16008414501D1714601E082
:100BD0004FF00071DFF8E083A8F14008C8F80C106E
:100BE00031E0814205D0914203D0994201D0A9421F
:100BF00001D1082121E0B14205D0B94203D06145BD
:100C000001D0494501D1594617E0DFF8AC83414591
:100C10000FD0DFF8A88341450BD0DFF89C8308F1A3
:100C20006008414505D0DFF8948308F1600841452C
:100C300001D1714601E04FF00071DFF87C83A8F12B
:100C40004008C8F80810DFF87483216808F1180814
:100C5000DFF86CB34FF4802E414530D9814205D086
:100C6000914203D0994201D0A94201D1594621E0D5
:100C7000B14205D0B94203D0614501D0494501D107
:100C8000514617E0DFF8308341450FD0DFF82C8361
:100C900041450BD0DFF8208308F16008414505D0BD
:100CA000DFF8188308F16008414501D1714601E081
:100CB0004FF08071DFF80483A8F1340835E0DFF8E5
:100CC000F88208F17808414532D9814205D0914235
:100CD00003D0994201D0A94201D1594621E0B14245
:100CE00005D0B94203D0614501D0494501D15146F3
:100CF00017E0DFF8C48241450FD0DFF8C0824145DC
:100D00000BD0DFF8B48208F16008414505D0DFF868
:100D1000AC8208F16008414501D1714601E04FF015
:100D20008071DFF89882A8F13808C8F800106AE0EE
:100D3000DFF8848208F11808414532D9814205D094
:100D4000914203D0994201D0A94201D1594621E0F4
:100D5000B14205D0B94203D0614501D0494501D126
:100D6000514617E0DFF8508241450FD0DFF84C8242
:100D700041450BD0DFF8408208F16008414505D0BD
:100D8000DFF8388208F16008414501D1714601E081
:100D90004FF08071DFF82082A8F14008C8F80C10ED
:100DA00031E0814205D0914203D0994201D0A9425D
:100DB00001D1594621E0B14205D0B94203D0614585
:100DC00001D0494501D1514617E0DFF8EC8141459A
:100DD0000FD0DFF8E88141450BD0DFF8DC8108F166
:100DE0006008414505D0DFF8D48108F1600841452D
:100DF00001D1714601E04FF08071DFF8BC81A8F1AC
:100E00004008C8F80810DFF8B481DFF8B4A1216801
:100E100008F11808AAF1030A4FF4803B4FF4800E42
:100E2000414527D9814205D0914203D0994201D052
:100E3000A94201D150461AE0B14205D0B94203D0CF
:100E4000614501D0494501D1402010E05A48814216
:100E50000AD05A48814207D057486030814203D0B7
:100E600056486030814201D1584600E070465349EF
:100E700034392CE0DFF8408108F17808414528D961
:100E8000814205D0914203D0994201D0A94201D1BB
:100E900050461AE0B14205D0B94203D0614501D0B5
:100EA000494501D1402010E0434881420AD04348DF
:100EB000814207D040486030814203D03F486030D3
:100EC000814201D1584600E070463C4938390860FB
:100ED00056E0DFF8E48008F11808414528D981423E
:100EE00005D0914203D0994201D0A94201D1504688
:100EF0001AE0B14205D0B94203D0614501D049455D
:100F000001D1402010E02C4881420AD02B48814278
:100F100007D029486030814203D0284860308142A0
:100F200001D1584600E0704623494039C86027E0A7
:100F3000814205D0914203D0994201D0A94201D10A
:100F400050461AE0B14205D0B94203D0614501D004
:100F5000494501D1402010E0174881420AD0174886
:100F6000814207D014486030814203D0134860307A
:100F7000814201D1584600E070460F4940398860EF
:100F80002068016841F0160101602068416941F064
:100F900080014161206C08B9A06C20B12068016813
:100FA00041F0080101602068016841F00101016021
:100FB0000098BDE8F88F00004060024040640240A5
:100FC000040080002DE9F84304464FF00008CDF8F6
:100FD000008064484FF41651A56D0068B0FBF1F72E
:100FE0002E6894F85C10082000FA01F131420FD00D
:100FF00021680A6852070BD50A6822F004020A60C9
:1010000094F85C108840A860606D40F00100606555
:1010100094F85C1054488840304208D021684969EF
:10102000090604D5A860606D40F0020060654E4876
:1010300094F85C10C01C8840304208D021680968D0
:10104000890704D5A860606D40F00400606594F8DD
:101050005C1010208840304218D0216809680907C8
:1010600014D5A86020680168490304D5006800030E
:1010700008D5A16C07E00168C90503D4016821F017
:1010800008010160216C09B12046884794F85C1082
:101090002020884030424FF0010631D02168096895
:1010A000C9062DD5A86094F8350005282068016888
:1010B00006D0490347D5006800031DD4616C1CE0CD
:1010C00021F0160101602068416921F08001416131
:1010D000206C08B9A06C20B12068016821F00801DB
:1010E000016094F85C103F208840A86084F8348048
:1010F00084F83560216D1FE0E16B09B12046884717
:10110000606D00282BD0606DC00714D0052084F8D6
:1011100035002068016821F0010101600098401C41
:101120000090B84203D820680068C007F6D184F860
:10113000348084F83560E16C002910D001B020467D
:10114000BDE8F04308470168C905D5D4016821F01E
:101150001001016084F8348084F83560CCE7BDE884
:10116000F883000018000020010080002DE9F04104
:10117000044600F049F906465CB1002584F8345075
:10118000022084F835002068016821F00101016027
:101190000DE00120BDE8F08100F036F9801B052844
:1011A00005D920206065032084F83500F2E7206827
:1011B0000068C007F0D1226811681F480140D4E9D7
:1011C00001031843D4E903363343184363691843D2
:1011D000A3691843E3691843236A18430843616A03
:1011E000042903D1D4E90B13194308431060206884
:1011F0004069666A20F0070130460E430127042843
:101200000AD1A06A06432046FFF7BEF820B140206D
:10121000606584F83570BCE7206846612046FFF7BA
:101220009FF894F85C203F2191408160656584F8C7
:1012300035700020AEE700003F8010F02DE9F84F38
:10124000DFF888B100224FF001084FF0030A4FF099
:101250000F090BF1040E00BF0B6808FA02F42340DB
:10126000A3426ED14D68022D01D0122D0ED1D508AA
:1012700000EB850CDCF820505607F70E09FA07F64C
:10128000B5430E69BE402E43CCF820600668550079
:101290000F790AFA05FC07F0030726EA0C06AF40AF
:1012A000374307604E68012E05D0022E03D0112E61
:1012B00001D0122E0ED18668CF6826EA0C06AF4008
:1012C000374387604668A6430C79C4F30014944002
:1012D00034434460C4688E6824EA0C04AE4026435C
:1012E000C6604C68E4006AD5394C256845F48045F1
:1012F0002560246822F0030504F480440094354CF2
:101300002E19D6F8084895072F0F09FA07F5AC43B0
:10131000314DA84201D1002529E0304DA84201D12C
:10132000012524E02E4DA84201D102251FE02D4DBC
:10133000A84201D103251AE02B4DA84202D1042571
:1013400015E03CE0294DA84201D105250FE0284DCC
:10135000A84201D106250AE0264DA84201D1072561
:1013600005E0254DA84201D1082500E00925BD4032
:101370002543C6F80858DBF800405D464E689C439C
:10138000F60300D51C432C60DEF8004075464E681D
:101390009C43B60300D51C432C600C4D08352C68CB
:1013A0004E689C43F60200D51C432C60074D0C355B
:1013B0002C684E689C43B60200D51C432C60521C1E
:1013C000102AFFF449AFBDE8F88F0000003C01404F
:1013D0004438024000300140000002400004024056
:1013E00000080240000C02400010024000140240BD
:1013F00000180240001C0240002002400AB1816136
:1014000070470904FBE700000148006870470000CE
:101410001C00002002480168491C01607047000060
:101420001C0000200B4810B5016841F400710160F8
:10143000016841F480610160016841F480710160DC
:10144000032000F09BF8002000F006F800F03EF8C2
:10145000002010BD003C024010B5014688B00022BB
:10146000362000F06BF8362000F05CF813480024BA
:10147000016841F010010160006805A900F010004A
:101480000690684600F038F900F05CF90C4940001D
:10149000B0FBF1F10C480B4A491E026040F2E73202
:1014A000C0E90324C0E9011400F04DFB10B1012094
:1014B00008B010BD044800F07FFBF9E74038024057
:1014C00040420F00001000406C03002010B50320C4
:1014D00000F054F8002211466FF00B0000F02EF8D7
:1014E000002211466FF00A0000F028F80022114691
:1014F0006FF0090000F022F800221146501F00F0A2
:101500001DF800221146101F00F018F800221146A5
:10151000901E00F013F80022BDE810401146501E46
:1015200000F00CB800F01F0201219140400980003A
:1015300000F1E020C0F8001170470000F0B40E4B3D
:101540001B680C46C3F30223C3F10705042D00D921
:101550000425191D072901D2002300E0DB1E012606
:1015600006FA05F1491E214099409E40761E16401C
:101570003143F0BC00F06ABE0CED00E0064900F01B
:10158000070208684FF6FF03184040EA0220034AAA
:1015900010430860704700000CED00E00000FA0501
:1015A0002DE9F047DFF8409105460E46D9F80000D6
:1015B00000F00F01F0B28046B14208D2014689F82E
:1015C0000010D9F8000000F00F00B04262D1287876
:1015D000464C800705D52068A96820F0F000084334
:1015E00020602878C00747D040496868083901283A
:1015F00016D00968022816D0890700294ADA21681E
:1016000021F0030101432160FFF7FEFE69680746F0
:1016100041F2883001290FD00229824619D027E0F3
:1016200009688903E9E78901E7E700BFFFF7ECFEF6
:10163000C11B514501D918E082462068C0F38100E2
:101640000128F3D118E000BFFFF7DEFEC11B5145B2
:101650000BD82068C0F381000228F5D10CE000BF50
:10166000FFF7D2FEC11B514502D90320BDE8F08728
:10167000206810F00C0FF3D1D9F80010484601F0A3
:101680000F01B14208D980F80080006800F00F0017
:10169000B04201D00120E9E72878400705D520684D
:1016A000E96820F4E050084320602878000706D558
:1016B0002068296920F4604040EAC100206000F001
:1016C00071F82168F02292FAA2F201F0F001B2FA68
:1016D00082F2D140064A515CC840064908600020A9
:1016E000FFF7BAFE0020C1E7003C02400838024084
:1016F000D4280008180000200F2202600C4A13684A
:1017000003F003034360136803F0F003836013687E
:1017100003F4E053C36012684FF4E05303EAD202CB
:1017200002610448006800F00F0008607047000084
:1017300008380240003C0240014800687047000041
:101740001800002008480949006809684FF4E05271
:1017500092FAA2F201F4E051B2FA82F2D140044AC4
:10176000515CC84070470000180000200838024053
:10177000D428000808480949006809684FF4604205
:1017800092FAA2F201F46041B2FA82F2D140044A24
:10179000515CC84070470000180000200838024023
:1017A000D428000830B51948006810F00C0118481A
:1017B00012D0441004290ED008290DD11349091F55
:1017C0000A6802F03F030A68550247F6C07204D562
:1017D000B4FBF3F003E0204630BDB0FBF3F00B6840
:1017E0000968134092FAA2F2B2FA82F2D340584347
:1017F0004FF4403292FAA2F201F44031B2FA82F28E
:10180000D140491C4900B0FBF1F030BD083802401E
:101810000024F4002DE9F84F0446DFF8CC8200786C
:10182000A8F1040BC007ABF1040537D0D8F80010BD
:101830004046C1F38101012908D00068C0F381004E
:1018400002280AD1DBF80000400206D52868800390
:1018500024D56068002878D020E0A3492079891F2A
:101860000870606868B1FFF7CFFD064605E000BF6D
:10187000FFF7CAFD801B642868D828688003F7D565
:101880000CE0FFF7C1FD064605E000BFFFF7BCFD19
:10189000801B6428F0D828688003F7D42078934E02
:1018A00080074FF0010A4FF0000742D5D8F800102A
:1018B000404611F00C0F08D00068C0F381000228E8
:1018C0000AD1DBF80000400206D42868800714D54E
:1018D000E068012839D110E0E068D8B1C6F800A06E
:1018E000FFF792FD814605E0FFF78EFDA0EB0900B2
:1018F0000228C1D828688007F6D52868F82292FA0D
:10190000A2F22169B2FA82F220F0F8009140084375
:1019100028600EE03760FFF777FD814606E000BFE4
:10192000FFF772FDA0EB090002280FD82868800796
:10193000F6D42078000728D56D486169A1B1C0F8B8
:1019400000A0FFF761FD814608E0CAE079E000BF32
:10195000FFF75AFDA0EB0900022872D862486C30EC
:1019600000688007F4D510E00760FFF74DFD814661
:1019700006E000BFFFF748FDA0EB0900022860D891
:1019800059486C3000688007F4D42078400749D566
:1019900055483830016841F080510160006800F01E
:1019A000805000905348016841F480710160FFF756
:1019B0002BFD814606E000BFFFF726FDA0EB0900E6
:1019C00002283ED84B480068C005F5D5DFF81891CD
:1019D000207A09F1680989F80000A06888B1FFF74A
:1019E00013FD009008E000BFFFF70EFD0099411ABB
:1019F00041F2883081426CD8D9F800008007F3D5D5
:101A000010E0FFF701FD009008E000BFFFF7FCFCCD
:101A10000099411A41F2883081425AD8D9F8000021
:101A20008007F3D4A069E0B3D8F80010C1F38101B6
:101A3000022956D00228376604D0FFF7E5FC044699
:101A40004AE046E0FFF7E0FC074604E0FFF7DCFC75
:101A5000C01B64283DD828688001F7D4D4E9070169
:101A6000084347F6C07292FAA2F2616AB2FA82F2B1
:101A70009140A26A4FF0FF3303EB52024FF4403320
:101A800093FAA3F3B3FA83F39A40114308434FF058
:101A9000706292FAA2F2E16AB2FA82F291400843CD
:101AA00000E01CE0CBF80000C6F860A0FFF7ACFC3B
:101AB000044604E0FFF7A8FC001B642809D8286846
:101AC0008001F7D50BE000BFFFF79EFC001B6428E8
:101AD00002D90320BDE8F88F28688001F4D40020E3
:101AE000F8E70120F6E7000008380240000047420E
:101AF000800E4742007000404FF0E0210428086942
:101B000003D020F004000861704740F00400FAE7B9
:101B1000704710B5401EB0F1807F01D3012010BD89
:101B20004FF0E02460610F21601700F08FFB002070
:101B3000A06107202061002010BD10B5FFF7E8FF6D
:101B400010BD7047704710B5040003D094F83900F9
:101B500010B107E0012010BD002084F838002046B5
:101B600000F00CF8022084F83900211D206800F0F4
:101B7000F1FB012084F83900002010BD08B5006891
:101B80000B49884212D10B48016841F48031016051
:101B90000068002200F48030009011461820FFF702
:101BA000CDFCBDE808401820FFF7BCBC08BD000014
:101BB00000400140443802400168CA6842F0010216
:101BC000CA600068016841F00101016000207047AF
:101BD000704770B50446006801694FF00005C943BD
:101BE000890715D4C168C943890711D4E91E016169
:101BF00001202076206880698007204602D0FFF708
:101C0000E7FF04E000F098F8204600F096F825760B
:101C100020680169C943490717D4C168C943490706
:101C200013D46FF0040101610220207620688069DE
:101C300010F4407F204602D0FFF7CAFF04E000F016
:101C40007BF8204600F079F8257620680169C943C1
:101C5000090716D4C168C943090712D46FF00801F7
:101C60000161042020762068C0698007204602D0E8
:101C7000FFF7AEFF04E000F05FF8204600F05DF8EB
:101C8000257620680169C943C90617D4C168C943CC
:101C9000C90613D46FF01001016108202076206876
:101CA000C06910F4407F204602D0FFF791FF04E0A6
:101CB00000F042F8204600F040F8257620680169DF
:101CC000C943C90708D1C168C943C90704D1891EDE
:101CD0000161204600F032F820680169C943090615
:101CE00009D4C168C943090605D46FF080010161B8
:101CF0002046FFF726FF20680169C943490609D439
:101D0000C168C943490605D46FF04001016120460E
:101D100000F01EF820680169C94389060BD4C16828
:101D2000C943890607D46FF0200101612046BDE850
:101D30007040FFF707BF70BD7047704700680349E8
:101D4000884201D1FFF766BB7047000000100040D9
:101D50007047704770B5040004D094F8390000252E
:101D600010B106E0012070BD84F83850204600F024
:101D700023F8242084F839002068C16821F4005138
:101D8000C160204600F0A6FB2068016921F4904163
:101D900001612068416921F02A0141612068C16820
:101DA00041F40051C160E563202084F8390084F8D3
:101DB0003A00002070BD00002DE9F047064600689B
:101DC0002B4986B088424FD12A480025016841F44A
:101DD0008021016000684FF0030A00F48020059024
:101DE0004FF440600090022001900120CDE9020AEA
:101DF0000720049069462048FFF720FA204C1F482E
:101E00004FF000672060C4E901754FF48068C4E9B1
:101E100003584FF480796561C4E90659256220466C
:101E20006562FFF7A3F908B1FEF7E8FA7463A663E9
:101E3000134C124860343030E4E802074020A4E834
:101E40002101042044F81459C4E90659C4E9085092
:101E5000C4E90AA50A4825636030FFF787F908B18D
:101E6000FEF7CCFA3463A66306B0BDE8F087000045
:101E70000048004040380240000402402860024010
:101E800004020020F8B5044690F83A0020283CD11E
:101E9000C1B3BBB394F83800012836D0012084F8D0
:101EA0003800A162A3850025E563222084F83A006A
:101EB000666B1748F063666B16487064606B056468
:101EC000606B8564666B1448F064606B0565009315
:101ED00013460A462168606B091DFEF7A9FB2068BE
:101EE000C16841F48071C1602068416941F001011D
:101EF00041612068416941F04001416184F83850F6
:101F00000020F8BDFFE70120FBE70220F9E7000011
:101F10005F2400089B2400081524000870477047C0
:101F20002DE9F843044690F839001F4616460D4641
:101F3000202850D1A5B19EB194F8380001284AD08C
:101F4000012084F838004FF00008C4F83C802120BC
:101F500084F83900FFF758FAA6848146E68426E023
:101F60000120BDE8F883E08C401EE084A0684B4669
:101F7000B0F5805F4FF000024FF0800120460097DF
:101F800003D000F0FDFBE8B90DE000F0F9FBC8B9A3
:101F900028882168C0F308004860206908B16D1CDA
:101FA00005E0AD1C03E0216815F8010B4860E08CEA
:101FB0000028D8D14B46002240212046009700F04F
:101FC000DFFB08B10320CCE7202084F8390084F837
:101FD00038800020C5E70220C3E7FEE77FB536481A
:101FE00034490025C0E90015856005620124C562F9
:101FF000C0E903540826C0E9064604634461FEF7BD
:10200000A7FA08B1FEF7FAF90A208DE8310069460F
:102010002948FEF7F5F908B1FEF7F0F90B2000901A
:102020000220019069462448FEF7EAF908B1FEF75C
:10203000E5F90C2000900320019069461E48FEF748
:10204000DFF908B1FEF7DAF90D200424CDE9000428
:1020500069461948FEF7D4F908B1FEF7CFF90E200A
:102060000525CDE9000569461348FEF7C9F908B111
:10207000FEF7C4F90F2000900620019069460E4833
:10208000FEF7BEF908B1FEF7B9F90720CDE9004027
:1020900069460948FEF7B4F908B1FEF7AFF9CDE992
:1020A000005669460448FEF7ABF9002801D0FEF758
:1020B000A5F97FBD00200140C4020020154808B5E5
:1020C000016841F400110160016801F40011009100
:1020D000016841F4800101600068002200F4800082
:1020E000009011460C20FFF729FA0C20FFF71AFA8E
:1020F000002211460E20FFF721FA0E20FFF712FAF8
:10210000002211463820FFF719FABDE808403820B0
:10211000FFF708BA303802402DE9F043384887B05D
:102120000024016841F010010160016801F0100114
:102130000591016841F004010160016801F00401AA
:102140000591016841F080010160016801F08001A2
:102150000591016841F001010160016801F0010190
:102160000591016841F002010160016801F002017E
:102170000591016841F0080101600068214F00F0FD
:10218000080044F20C050590002229463846FFF766
:1021900035F9DFF8748041F20316002231464046DB
:1021A000FFF72CF9DFF8649000223B214846FFF747
:1021B00025F900950125CDE9015469463846039477
:1021C000FFF73CF80096CDE9015469464046039478
:1021D000FFF734F848F60470CDE900046946484634
:1021E0000294FFF72BF83B200090CDE9015469469B
:1021F00048460394FFF722F807B0BDE8F0830000DB
:10220000303802400010024000040240000C02403E
:102210000C4810B50A4901604FF416514160002185
:1022200081600C22C160C0E904128161C161FFF7C5
:1022300091FD002803D0BDE81040FEF7DFB810BDC7
:1022400000480040C4010020FEE770470907090E5E
:10225000002806DA00F00F0000F1E02080F8141DDD
:10226000704700F1E02080F8001470477047704715
:10227000FFF763BC10B592B00120009001900224DA
:102280008005CDE9064008200890F020CDE909043A
:1022900004200B906846FFF7BDFA00B1FEE70F205F
:1022A000CDE90C0400200E904FF4A0500F904FF495
:1022B0008050109003210CA8FFF772F900B1FEE7DF
:1022C000FFF73AFA4FF47A71B0FBF1F0FFF721FC17
:1022D0000420FFF711FC00221146501EFFF72EF9D3
:1022E00012B010BD0D48016841F0010101600B4AB8
:1022F0000021083211600268094B1A400260031D78
:10230000084A1A60026822F48022026003480C30F6
:102310000160054958060860704700000038024017
:10232000FFFFF6FE1030002408ED00E010B5044871
:10233000FFF74FFCBDE810400248FFF74ABC000021
:1023400020000020880100200148FFF742BC000067
:102350006C030020F0B50268234B244D244E254F1A
:10236000254C4FF0804C984209D0604507D0A842D8
:1023700005D0B04203D0B84201D0A04204D122F02F
:10238000700E4A6842EA0E0298421BD0604519D08E
:10239000A84217D0B04215D0B84213D0A04211D0F5
:1023A000164DA8420ED0164DA8420BD0154DA8428E
:1023B00008D0154DA84205D0144DA84202D0144DA6
:1023C000A84203D122F44075CA682A4302608A6891
:1023D000C2620A688262984201D0A04201D10969B2
:1023E000016301214161F0BD000001400004004093
:1023F00000080040000C0040000401400040014083
:10240000004401400048014000180040001C00400A
:102410000020004070B5846B2068406994F8391042
:10242000C0F3C0100025212904D118B1E58420464D
:1024300000F046F82068406994F83A10C0F3801024
:10244000222904D118B1E585204600F02BF8E06B75
:1024500040F01000E0632046FFF77BFC70BD10B534
:102460000146806B09680968C90513D40021C1853C
:102470000168CA6822F48072CA6001684A6922F061
:1024800001024A6101684A6922F040024A61202142
:1024900080F83A10FFF742FD10BD10B5806BFFF7D2
:1024A0003EFD10BD0168CA6822F49072CA600168DE
:1024B0004A6922F001024A61202180F83A107047EF
:1024C0000168CA6822F0C002CA60202180F8391071
:1024D000704700002DE9F04104460068016921F4CD
:1024E0004052E168114301612168C86849F20C62F9
:1024F00090432369A268E5691A4363692B431A4331
:102500000243CA602168486920F44072A069104300
:102510004861E1696425B1F5004F9748974A216801
:102520004FF032083FD0914201D081427CD1FFF779
:1025300021F900EBC00101EB001061688900B0FBDC
:10254000F1F6FFF717F900EBC00101EB001061682D
:102550008900B0FBF1F0B0FBF5F06FF018014843D3
:1025600006EB800108EB0110B0FBF5F000F0F0067F
:10257000FFF700F900EBC00101EB00106168890072
:10258000B0FBF1F0B0FBF5F006EB0016FFF7F2F848
:1025900000EBC00101EB001061688900B0FBF1F7AE
:1025A000FFF7E8F8D2E0914201D081423DD1FFF738
:1025B000E1F800EBC00101EB001061684900B0FBDD
:1025C000F1F0B0FBF5F00601FFF7D4F800EBC00125
:1025D00001EB001061684900B0FBF1F7FFF7CAF8A2
:1025E00000EBC00101EB001061684900B0FBF1F0A5
:1025F000B0FBF5F06FF01801484307EB800108EBE2
:10260000C100B0FBF5F000F0F80006EB4006FFF764
:10261000B1F800EBC00101EB001061684900B0FBAC
:10262000F1F7FFF7A7F83CE055E0FFF78BF800EB78
:10263000C00101EB001061684900B0FBF1F0B0FB94
:10264000F5F00601FFF77EF800EBC00101EB00108A
:1026500061684900B0FBF1F7FFF774F800EBC001C7
:1026600001EB001061684900B0FBF1F0B0FBF5F040
:102670006FF01801484307EB800108EBC100B0FB85
:10268000F5F000F0F80006EB4006FFF75BF800EB12
:10269000C00101EB001061684900B0FBF1F7FFF7E2
:1026A00051F800EBC00101EB001061684900B0FB7C
:1026B000F1F0B0FBF5F06FF01801484307EB800133
:1026C00008EBC100B0FBF5F000F0070021683044D2
:1026D0008860BDE8F081FFF735F800EBC00101EB41
:1026E000001061688900B0FBF1F6FFF72BF800EBF2
:1026F000C00101EB001061688900B0FBF1F0B0FB94
:10270000F5F06FF01801484306EB800108EB01106B
:10271000B0FBF5F000F0F006FFF714F800EBC00195
:1027200001EB001061688900B0FBF1F0B0FBF5F03F
:1027300006EB0016FFF706F800EBC00101EB0010F6
:1027400061688900B0FBF1F7FEF7FCFF00EBC00108
:1027500001EB001061688900B0FBF1F0B0FBF5F00F
:102760006FF01801484307EB800108EB0110B0FB44
:10277000F5F000F00F00A9E700140140001001403F
:102780002DE9F041984617460E460446069D1DE089
:10279000681C1BD02DB1FEF737FEA0EB0800A84245
:1027A00014D92068C16821F4D071C16020684169E2
:1027B00021F001014161202084F8390084F83A00B9
:1027C000002084F838000320BDE8F081206800680C
:1027D00036EA000004D00020B842D9D00020F3E748
:1027E0000120F9E7FEE702E008C8121F08C1002A2D
:1027F000FAD170477047002001E001C1121F002A82
:10280000FBD17047FEF70EFEFFF734FDFFF784FCA7
:10281000FFF754FCFFF7E2FBFFF7FAFC294A052318
:10282000511F2948FFF72EFB264C0026113C4FF480
:102830007A7520274FF00D084FF00A0960780128BB
:10284000FCD12078012829D00028F7D12B46052279
:102850001C491D48FFF764FB1A49A7702B4601224B
:102860000F391948FFF75CFBA1682B461622164862
:10287000FFF756FB134984F802802B4601220F39DB
:102880001148FFF74DFB0F4984F802902B460122B7
:102890000F390D48FFF744FB6670CFE709492B4617
:1028A0000522491F0848FFF73BFB0649A7702B4646
:1028B00001220F390448FFF733FB2B4616226168CB
:1028C000D5E7000011000020C4010020000610160A
:1028D00000061016000000000102030401020304B8
:1028E000060708094D656D6F727920627566666529
:1028F0007220312066696C6C656400004D656D6FF7
:1029000072792062756666657220322066696C6C29
:102910006564000034290008000000202000000049
:10292000E62700085429000820000020880700003E
:10293000F627000800000A00E4280008FC28000828
:10294000000000000000000000000000001BB700B5
:042950000000000083
:040000050800018569
:00000001FF
